{
  "_format": "hh-sol-artifact-1",
  "contractName": "ArborswapOat",
  "sourceName": "contracts/ArborswapOat.sol",
  "abi": [
    {
      "inputs": [
        {
          "internalType": "address",
          "name": "_royaltyReceiver",
          "type": "address"
        }
      ],
      "stateMutability": "nonpayable",
      "type": "constructor"
    },
    {
      "anonymous": false,
      "inputs": [
        {
          "indexed": true,
          "internalType": "address",
          "name": "owner",
          "type": "address"
        },
        {
          "indexed": true,
          "internalType": "address",
          "name": "approved",
          "type": "address"
        },
        {
          "indexed": true,
          "internalType": "uint256",
          "name": "tokenId",
          "type": "uint256"
        }
      ],
      "name": "Approval",
      "type": "event"
    },
    {
      "anonymous": false,
      "inputs": [
        {
          "indexed": true,
          "internalType": "address",
          "name": "owner",
          "type": "address"
        },
        {
          "indexed": true,
          "internalType": "address",
          "name": "operator",
          "type": "address"
        },
        {
          "indexed": false,
          "internalType": "bool",
          "name": "approved",
          "type": "bool"
        }
      ],
      "name": "ApprovalForAll",
      "type": "event"
    },
    {
      "anonymous": false,
      "inputs": [
        {
          "indexed": true,
          "internalType": "bytes32",
          "name": "role",
          "type": "bytes32"
        },
        {
          "indexed": true,
          "internalType": "bytes32",
          "name": "previousAdminRole",
          "type": "bytes32"
        },
        {
          "indexed": true,
          "internalType": "bytes32",
          "name": "newAdminRole",
          "type": "bytes32"
        }
      ],
      "name": "RoleAdminChanged",
      "type": "event"
    },
    {
      "anonymous": false,
      "inputs": [
        {
          "indexed": true,
          "internalType": "bytes32",
          "name": "role",
          "type": "bytes32"
        },
        {
          "indexed": true,
          "internalType": "address",
          "name": "account",
          "type": "address"
        },
        {
          "indexed": true,
          "internalType": "address",
          "name": "sender",
          "type": "address"
        }
      ],
      "name": "RoleGranted",
      "type": "event"
    },
    {
      "anonymous": false,
      "inputs": [
        {
          "indexed": true,
          "internalType": "bytes32",
          "name": "role",
          "type": "bytes32"
        },
        {
          "indexed": true,
          "internalType": "address",
          "name": "account",
          "type": "address"
        },
        {
          "indexed": true,
          "internalType": "address",
          "name": "sender",
          "type": "address"
        }
      ],
      "name": "RoleRevoked",
      "type": "event"
    },
    {
      "anonymous": false,
      "inputs": [
        {
          "indexed": true,
          "internalType": "address",
          "name": "from",
          "type": "address"
        },
        {
          "indexed": true,
          "internalType": "address",
          "name": "to",
          "type": "address"
        },
        {
          "indexed": true,
          "internalType": "uint256",
          "name": "tokenId",
          "type": "uint256"
        }
      ],
      "name": "Transfer",
      "type": "event"
    },
    {
      "inputs": [],
      "name": "DEFAULT_ADMIN_ROLE",
      "outputs": [
        {
          "internalType": "bytes32",
          "name": "",
          "type": "bytes32"
        }
      ],
      "stateMutability": "view",
      "type": "function"
    },
    {
      "inputs": [],
      "name": "MINTER_ROLE",
      "outputs": [
        {
          "internalType": "bytes32",
          "name": "",
          "type": "bytes32"
        }
      ],
      "stateMutability": "view",
      "type": "function"
    },
    {
      "inputs": [
        {
          "internalType": "uint256",
          "name": "_tokenId",
          "type": "uint256"
        },
        {
          "internalType": "uint256",
          "name": "_campaignId",
          "type": "uint256"
        },
        {
          "internalType": "string",
          "name": "_campaignName",
          "type": "string"
        }
      ],
      "name": "addCampaign",
      "outputs": [],
      "stateMutability": "nonpayable",
      "type": "function"
    },
    {
      "inputs": [
        {
          "internalType": "address",
          "name": "to",
          "type": "address"
        },
        {
          "internalType": "uint256",
          "name": "tokenId",
          "type": "uint256"
        }
      ],
      "name": "approve",
      "outputs": [],
      "stateMutability": "nonpayable",
      "type": "function"
    },
    {
      "inputs": [
        {
          "internalType": "address",
          "name": "owner",
          "type": "address"
        }
      ],
      "name": "balanceOf",
      "outputs": [
        {
          "internalType": "uint256",
          "name": "",
          "type": "uint256"
        }
      ],
      "stateMutability": "view",
      "type": "function"
    },
    {
      "inputs": [],
      "name": "baseURI",
      "outputs": [
        {
          "internalType": "string",
          "name": "",
          "type": "string"
        }
      ],
      "stateMutability": "view",
      "type": "function"
    },
    {
      "inputs": [
        {
          "internalType": "uint256",
          "name": "tokenId",
          "type": "uint256"
        }
      ],
      "name": "burn",
      "outputs": [],
      "stateMutability": "nonpayable",
      "type": "function"
    },
    {
      "inputs": [
        {
          "internalType": "uint256",
          "name": "tokenId",
          "type": "uint256"
        }
      ],
      "name": "getApproved",
      "outputs": [
        {
          "internalType": "address",
          "name": "",
          "type": "address"
        }
      ],
      "stateMutability": "view",
      "type": "function"
    },
    {
      "inputs": [
        {
          "internalType": "uint256",
          "name": "_tokenId",
          "type": "uint256"
        }
      ],
      "name": "getCampaign",
      "outputs": [
        {
          "components": [
            {
              "internalType": "uint256",
              "name": "id",
              "type": "uint256"
            },
            {
              "internalType": "string",
              "name": "name",
              "type": "string"
            }
          ],
          "internalType": "struct ArborswapOat.CampaignInfo",
          "name": "",
          "type": "tuple"
        }
      ],
      "stateMutability": "view",
      "type": "function"
    },
    {
      "inputs": [
        {
          "internalType": "bytes32",
          "name": "role",
          "type": "bytes32"
        }
      ],
      "name": "getRoleAdmin",
      "outputs": [
        {
          "internalType": "bytes32",
          "name": "",
          "type": "bytes32"
        }
      ],
      "stateMutability": "view",
      "type": "function"
    },
    {
      "inputs": [
        {
          "internalType": "bytes32",
          "name": "role",
          "type": "bytes32"
        },
        {
          "internalType": "address",
          "name": "account",
          "type": "address"
        }
      ],
      "name": "grantRole",
      "outputs": [],
      "stateMutability": "nonpayable",
      "type": "function"
    },
    {
      "inputs": [
        {
          "internalType": "bytes32",
          "name": "role",
          "type": "bytes32"
        },
        {
          "internalType": "address",
          "name": "account",
          "type": "address"
        }
      ],
      "name": "hasRole",
      "outputs": [
        {
          "internalType": "bool",
          "name": "",
          "type": "bool"
        }
      ],
      "stateMutability": "view",
      "type": "function"
    },
    {
      "inputs": [
        {
          "internalType": "address",
          "name": "owner",
          "type": "address"
        },
        {
          "internalType": "address",
          "name": "operator",
          "type": "address"
        }
      ],
      "name": "isApprovedForAll",
      "outputs": [
        {
          "internalType": "bool",
          "name": "",
          "type": "bool"
        }
      ],
      "stateMutability": "view",
      "type": "function"
    },
    {
      "inputs": [],
      "name": "name",
      "outputs": [
        {
          "internalType": "string",
          "name": "",
          "type": "string"
        }
      ],
      "stateMutability": "view",
      "type": "function"
    },
    {
      "inputs": [
        {
          "internalType": "uint256",
          "name": "tokenId",
          "type": "uint256"
        }
      ],
      "name": "ownerOf",
      "outputs": [
        {
          "internalType": "address",
          "name": "",
          "type": "address"
        }
      ],
      "stateMutability": "view",
      "type": "function"
    },
    {
      "inputs": [
        {
          "internalType": "bytes32",
          "name": "role",
          "type": "bytes32"
        },
        {
          "internalType": "address",
          "name": "account",
          "type": "address"
        }
      ],
      "name": "renounceRole",
      "outputs": [],
      "stateMutability": "nonpayable",
      "type": "function"
    },
    {
      "inputs": [
        {
          "internalType": "bytes32",
          "name": "role",
          "type": "bytes32"
        },
        {
          "internalType": "address",
          "name": "account",
          "type": "address"
        }
      ],
      "name": "revokeRole",
      "outputs": [],
      "stateMutability": "nonpayable",
      "type": "function"
    },
    {
      "inputs": [
        {
          "internalType": "uint256",
          "name": "tokenId",
          "type": "uint256"
        },
        {
          "internalType": "uint256",
          "name": "salePrice",
          "type": "uint256"
        }
      ],
      "name": "royaltyInfo",
      "outputs": [
        {
          "internalType": "address",
          "name": "",
          "type": "address"
        },
        {
          "internalType": "uint256",
          "name": "",
          "type": "uint256"
        }
      ],
      "stateMutability": "view",
      "type": "function"
    },
    {
      "inputs": [
        {
          "internalType": "address",
          "name": "to",
          "type": "address"
        },
        {
          "internalType": "uint256",
          "name": "tokenId",
          "type": "uint256"
        }
      ],
      "name": "safeMint",
      "outputs": [],
      "stateMutability": "nonpayable",
      "type": "function"
    },
    {
      "inputs": [
        {
          "internalType": "address",
          "name": "from",
          "type": "address"
        },
        {
          "internalType": "address",
          "name": "to",
          "type": "address"
        },
        {
          "internalType": "uint256",
          "name": "tokenId",
          "type": "uint256"
        }
      ],
      "name": "safeTransferFrom",
      "outputs": [],
      "stateMutability": "nonpayable",
      "type": "function"
    },
    {
      "inputs": [
        {
          "internalType": "address",
          "name": "from",
          "type": "address"
        },
        {
          "internalType": "address",
          "name": "to",
          "type": "address"
        },
        {
          "internalType": "uint256",
          "name": "tokenId",
          "type": "uint256"
        },
        {
          "internalType": "bytes",
          "name": "data",
          "type": "bytes"
        }
      ],
      "name": "safeTransferFrom",
      "outputs": [],
      "stateMutability": "nonpayable",
      "type": "function"
    },
    {
      "inputs": [
        {
          "internalType": "address",
          "name": "operator",
          "type": "address"
        },
        {
          "internalType": "bool",
          "name": "approved",
          "type": "bool"
        }
      ],
      "name": "setApprovalForAll",
      "outputs": [],
      "stateMutability": "nonpayable",
      "type": "function"
    },
    {
      "inputs": [
        {
          "internalType": "string",
          "name": "_baseUri",
          "type": "string"
        }
      ],
      "name": "setBaseURI",
      "outputs": [],
      "stateMutability": "nonpayable",
      "type": "function"
    },
    {
      "inputs": [
        {
          "internalType": "bytes4",
          "name": "interfaceId",
          "type": "bytes4"
        }
      ],
      "name": "supportsInterface",
      "outputs": [
        {
          "internalType": "bool",
          "name": "",
          "type": "bool"
        }
      ],
      "stateMutability": "view",
      "type": "function"
    },
    {
      "inputs": [],
      "name": "symbol",
      "outputs": [
        {
          "internalType": "string",
          "name": "",
          "type": "string"
        }
      ],
      "stateMutability": "view",
      "type": "function"
    },
    {
      "inputs": [
        {
          "internalType": "uint256",
          "name": "index",
          "type": "uint256"
        }
      ],
      "name": "tokenByIndex",
      "outputs": [
        {
          "internalType": "uint256",
          "name": "",
          "type": "uint256"
        }
      ],
      "stateMutability": "view",
      "type": "function"
    },
    {
      "inputs": [
        {
          "internalType": "address",
          "name": "owner",
          "type": "address"
        },
        {
          "internalType": "uint256",
          "name": "index",
          "type": "uint256"
        }
      ],
      "name": "tokenOfOwnerByIndex",
      "outputs": [
        {
          "internalType": "uint256",
          "name": "",
          "type": "uint256"
        }
      ],
      "stateMutability": "view",
      "type": "function"
    },
    {
      "inputs": [
        {
          "internalType": "uint256",
          "name": "tokenId",
          "type": "uint256"
        }
      ],
      "name": "tokenURI",
      "outputs": [
        {
          "internalType": "string",
          "name": "",
          "type": "string"
        }
      ],
      "stateMutability": "view",
      "type": "function"
    },
    {
      "inputs": [],
      "name": "totalSupply",
      "outputs": [
        {
          "internalType": "uint256",
          "name": "",
          "type": "uint256"
        }
      ],
      "stateMutability": "view",
      "type": "function"
    },
    {
      "inputs": [
        {
          "internalType": "address",
          "name": "from",
          "type": "address"
        },
        {
          "internalType": "address",
          "name": "to",
          "type": "address"
        },
        {
          "internalType": "uint256",
          "name": "tokenId",
          "type": "uint256"
        }
      ],
      "name": "transferFrom",
      "outputs": [],
      "stateMutability": "nonpayable",
      "type": "function"
    }
  ],
  "bytecode": "0x60e060405260226080818152906200290660a03980516200002991600d91602090910190620002cb565b503480156200003757600080fd5b5060405162002928380380620029288339810160408190526200005a9162000371565b604080518082018252600d81526c105c989bdc9cddd85c0813d055609a1b60208083019182528351808501909452600384526213d05560ea1b908401528151919291620000aa91600291620002cb565b508051620000c0906003906020840190620002cb565b50620000d29150600090503362000112565b620000fe7f9f2df0fed2c77648de5860a4cc508cd0818c85b8b8a1ab4ceeef8d981c8956a63362000112565b6200010b8160c862000122565b50620003e0565b6200011e828262000227565b5050565b6127106001600160601b0382161115620001965760405162461bcd60e51b815260206004820152602a60248201527f455243323938313a20726f79616c7479206665652077696c6c206578636565646044820152692073616c65507269636560b01b60648201526084015b60405180910390fd5b6001600160a01b038216620001ee5760405162461bcd60e51b815260206004820152601960248201527f455243323938313a20696e76616c69642072656365697665720000000000000060448201526064016200018d565b604080518082019091526001600160a01b039092168083526001600160601b039091166020909201829052600160a01b90910217600055565b6000828152600c602090815260408083206001600160a01b038516845290915290205460ff166200011e576000828152600c602090815260408083206001600160a01b03851684529091529020805460ff19166001179055620002873390565b6001600160a01b0316816001600160a01b0316837f2f8788117e7eff1d82e926ec794901d17c78024a50270940304540a733656f0d60405160405180910390a45050565b828054620002d990620003a3565b90600052602060002090601f016020900481019282620002fd576000855562000348565b82601f106200031857805160ff191683800117855562000348565b8280016001018555821562000348579182015b82811115620003485782518255916020019190600101906200032b565b50620003569291506200035a565b5090565b5b808211156200035657600081556001016200035b565b6000602082840312156200038457600080fd5b81516001600160a01b03811681146200039c57600080fd5b9392505050565b600181811c90821680620003b857607f821691505b60208210811415620003da57634e487b7160e01b600052602260045260246000fd5b50919050565b61251680620003f06000396000f3fe608060405234801561001057600080fd5b50600436106101da5760003560e01c806355f804b311610104578063a217fddf116100a2578063c87b56dd11610071578063c87b56dd14610418578063d53913931461042b578063d547741f14610452578063e985e9c51461046557600080fd5b8063a217fddf146103d7578063a22cb465146103df578063a5777475146103f2578063b88d4fde1461040557600080fd5b806370a08231116100de57806370a082311461039657806391d14854146103a957806395d89b41146103bc578063a1448194146103c457600080fd5b806355f804b3146103685780636352211e1461037b5780636c0360eb1461038e57600080fd5b80632a55205a1161017c57806342842e0e1161014b57806342842e0e1461030f57806342966c68146103225780634f6ccce7146103355780635598f8cc1461034857600080fd5b80632a55205a146102a45780632f2ff15d146102d65780632f745c59146102e957806336568abe146102fc57600080fd5b8063095ea7b3116101b8578063095ea7b31461024757806318160ddd1461025c57806323b872dd1461026e578063248a9ca31461028157600080fd5b806301ffc9a7146101df57806306fdde0314610207578063081812fc1461021c575b600080fd5b6101f26101ed366004611da2565b6104a1565b60405190151581526020015b60405180910390f35b61020f6104b2565b6040516101fe9190611e17565b61022f61022a366004611e2a565b610544565b6040516001600160a01b0390911681526020016101fe565b61025a610255366004611e5f565b61056b565b005b600a545b6040519081526020016101fe565b61025a61027c366004611e89565b610686565b61026061028f366004611e2a565b6000908152600c602052604090206001015490565b6102b76102b2366004611ec5565b6106b8565b604080516001600160a01b0390931683526020830191909152016101fe565b61025a6102e4366004611ee7565b610764565b6102606102f7366004611e5f565b610789565b61025a61030a366004611ee7565b61081f565b61025a61031d366004611e89565b61089d565b61025a610330366004611e2a565b6108b8565b610260610343366004611e2a565b6108e9565b61035b610356366004611e2a565b61097c565b6040516101fe9190611f13565b61025a610376366004611fe4565b610a52565b61022f610389366004611e2a565b610a70565b61020f610ad0565b6102606103a4366004612019565b610b5e565b6101f26103b7366004611ee7565b610be4565b61020f610c0f565b61025a6103d2366004611e5f565b610c1e565b610260600081565b61025a6103ed366004612034565b610c52565b61025a610400366004612070565b610c5d565b61025a6104133660046120c0565b610ccc565b61020f610426366004611e2a565b610d04565b6102607f9f2df0fed2c77648de5860a4cc508cd0818c85b8b8a1ab4ceeef8d981c8956a681565b61025a610460366004611ee7565b610d51565b6101f261047336600461213c565b6001600160a01b03918216600090815260076020908152604080832093909416825291909152205460ff1690565b60006104ac82610d76565b92915050565b6060600280546104c190612166565b80601f01602080910402602001604051908101604052809291908181526020018280546104ed90612166565b801561053a5780601f1061050f5761010080835404028352916020019161053a565b820191906000526020600020905b81548152906001019060200180831161051d57829003601f168201915b5050505050905090565b600061054f82610d81565b506000908152600660205260409020546001600160a01b031690565b600061057682610a70565b9050806001600160a01b0316836001600160a01b031614156105e95760405162461bcd60e51b815260206004820152602160248201527f4552433732313a20617070726f76616c20746f2063757272656e74206f776e656044820152603960f91b60648201526084015b60405180910390fd5b336001600160a01b038216148061060557506106058133610473565b6106775760405162461bcd60e51b815260206004820152603d60248201527f4552433732313a20617070726f76652063616c6c6572206973206e6f7420746f60448201527f6b656e206f776e6572206f7220617070726f76656420666f7220616c6c00000060648201526084016105e0565b6106818383610de0565b505050565b610691335b82610e4e565b6106ad5760405162461bcd60e51b81526004016105e0906121a1565b610681838383610ecd565b60008281526001602090815260408083208151808301909252546001600160a01b038116808352600160a01b9091046001600160601b031692820192909252829161072d5750604080518082019091526000546001600160a01b0381168252600160a01b90046001600160601b031660208201525b60208101516000906127109061074c906001600160601b031687612204565b6107569190612223565b915196919550909350505050565b6000828152600c602052604090206001015461077f8161103e565b6106818383611048565b600061079483610b5e565b82106107f65760405162461bcd60e51b815260206004820152602b60248201527f455243373231456e756d657261626c653a206f776e657220696e646578206f7560448201526a74206f6620626f756e647360a81b60648201526084016105e0565b506001600160a01b03919091166000908152600860209081526040808320938352929052205490565b6001600160a01b038116331461088f5760405162461bcd60e51b815260206004820152602f60248201527f416363657373436f6e74726f6c3a2063616e206f6e6c792072656e6f756e636560448201526e103937b632b9903337b91039b2b63360891b60648201526084016105e0565b61089982826110ce565b5050565b61068183838360405180602001604052806000815250610ccc565b6108c13361068b565b6108dd5760405162461bcd60e51b81526004016105e0906121a1565b6108e681611135565b50565b60006108f4600a5490565b82106109575760405162461bcd60e51b815260206004820152602c60248201527f455243373231456e756d657261626c653a20676c6f62616c20696e646578206f60448201526b7574206f6620626f756e647360a01b60648201526084016105e0565b600a828154811061096a5761096a612245565b90600052602060002001549050919050565b604080518082019091526000815260606020820152600e6000838152602001908152602001600020604051806040016040529081600082015481526020016001820180546109c990612166565b80601f01602080910402602001604051908101604052809291908181526020018280546109f590612166565b8015610a425780601f10610a1757610100808354040283529160200191610a42565b820191906000526020600020905b815481529060010190602001808311610a2557829003601f168201915b5050505050815250509050919050565b6000610a5d8161103e565b815161068190600d906020850190611cf3565b6000818152600460205260408120546001600160a01b0316806104ac5760405162461bcd60e51b8152602060048201526018602482015277115490cdcc8c4e881a5b9d985b1a59081d1bdad95b88125160421b60448201526064016105e0565b600d8054610add90612166565b80601f0160208091040260200160405190810160405280929190818152602001828054610b0990612166565b8015610b565780601f10610b2b57610100808354040283529160200191610b56565b820191906000526020600020905b815481529060010190602001808311610b3957829003601f168201915b505050505081565b60006001600160a01b038216610bc85760405162461bcd60e51b815260206004820152602960248201527f4552433732313a2061646472657373207a65726f206973206e6f7420612076616044820152683634b21037bbb732b960b91b60648201526084016105e0565b506001600160a01b031660009081526005602052604090205490565b6000918252600c602090815260408084206001600160a01b0393909316845291905290205460ff1690565b6060600380546104c190612166565b7f9f2df0fed2c77648de5860a4cc508cd0818c85b8b8a1ab4ceeef8d981c8956a6610c488161103e565b610681838361113e565b610899338383611158565b7f9f2df0fed2c77648de5860a4cc508cd0818c85b8b8a1ab4ceeef8d981c8956a6610c878161103e565b60408051808201825284815260208082018581526000888152600e8352939093208251815592518051929392610cc39260018501920190611cf3565b50505050505050565b610cd63383610e4e565b610cf25760405162461bcd60e51b81526004016105e0906121a1565b610cfe84848484611227565b50505050565b6060610d0f82610d81565b6000828152600e6020526040902054600d610d298261125a565b604051602001610d3a929190612277565b604051602081830303815290604052915050919050565b6000828152600c6020526040902060010154610d6c8161103e565b61068183836110ce565b60006104ac826112f7565b6000818152600460205260409020546001600160a01b03166108e65760405162461bcd60e51b8152602060048201526018602482015277115490cdcc8c4e881a5b9d985b1a59081d1bdad95b88125160421b60448201526064016105e0565b600081815260066020526040902080546001600160a01b0319166001600160a01b0384169081179091558190610e1582610a70565b6001600160a01b03167f8c5be1e5ebec7d5bd14f71427d1e84f3dd0314c0f7b2291e5b200ac8c7c3b92560405160405180910390a45050565b600080610e5a83610a70565b9050806001600160a01b0316846001600160a01b03161480610ea157506001600160a01b0380821660009081526007602090815260408083209388168352929052205460ff165b80610ec55750836001600160a01b0316610eba84610544565b6001600160a01b0316145b949350505050565b826001600160a01b0316610ee082610a70565b6001600160a01b031614610f065760405162461bcd60e51b81526004016105e09061231e565b6001600160a01b038216610f685760405162461bcd60e51b8152602060048201526024808201527f4552433732313a207472616e7366657220746f20746865207a65726f206164646044820152637265737360e01b60648201526084016105e0565b610f75838383600161131c565b826001600160a01b0316610f8882610a70565b6001600160a01b031614610fae5760405162461bcd60e51b81526004016105e09061231e565b600081815260066020908152604080832080546001600160a01b03199081169091556001600160a01b0387811680865260058552838620805460001901905590871680865283862080546001019055868652600490945282852080549092168417909155905184937fddf252ad1be2c89b69c2b068fc378daa952ba7f163c4a11628f55a4df523b3ef91a4505050565b6108e68133611328565b6110528282610be4565b610899576000828152600c602090815260408083206001600160a01b03851684529091529020805460ff1916600117905561108a3390565b6001600160a01b0316816001600160a01b0316837f2f8788117e7eff1d82e926ec794901d17c78024a50270940304540a733656f0d60405160405180910390a45050565b6110d88282610be4565b15610899576000828152600c602090815260408083206001600160a01b0385168085529252808320805460ff1916905551339285917ff6391f5c32d9c69d2a47ea670b442974b53935d1edc7fd64eb21e047a839171b9190a45050565b6108e681611381565b61089982826040518060200160405280600081525061139b565b816001600160a01b0316836001600160a01b031614156111ba5760405162461bcd60e51b815260206004820152601960248201527f4552433732313a20617070726f766520746f2063616c6c65720000000000000060448201526064016105e0565b6001600160a01b03838116600081815260076020908152604080832094871680845294825291829020805460ff191686151590811790915591519182527f17307eab39ab6107e8899845ad3d59bd9653f200f220920489ca2b5937696c31910160405180910390a3505050565b611232848484610ecd565b61123e848484846113ce565b610cfe5760405162461bcd60e51b81526004016105e090612363565b60606000611267836114cc565b600101905060008167ffffffffffffffff81111561128757611287611f38565b6040519080825280601f01601f1916602001820160405280156112b1576020820181803683370190505b5090508181016020015b600019016f181899199a1a9b1b9c1cb0b131b232b360811b600a86061a8153600a85049450846112ea576112ef565b6112bb565b509392505050565b60006001600160e01b03198216637965db0b60e01b14806104ac57506104ac826115a4565b610cfe848484846115c9565b6113328282610be4565b6108995761133f816116fd565b61134a83602061170f565b60405160200161135b9291906123b5565b60408051601f198184030181529082905262461bcd60e51b82526105e091600401611e17565b61138a816118b2565b600090815260016020526040812055565b6113a58383611955565b6113b260008484846113ce565b6106815760405162461bcd60e51b81526004016105e090612363565b60006001600160a01b0384163b156114c157604051630a85bd0160e11b81526001600160a01b0385169063150b7a029061141290339089908890889060040161242a565b6020604051808303816000875af192505050801561144d575060408051601f3d908101601f1916820190925261144a91810190612467565b60015b6114a7573d80801561147b576040519150601f19603f3d011682016040523d82523d6000602084013e611480565b606091505b50805161149f5760405162461bcd60e51b81526004016105e090612363565b805181602001fd5b6001600160e01b031916630a85bd0160e11b149050610ec5565b506001949350505050565b60008072184f03e93ff9f4daa797ed6e38ed64bf6a1f0160401b831061150b5772184f03e93ff9f4daa797ed6e38ed64bf6a1f0160401b830492506040015b6d04ee2d6d415b85acef81000000008310611537576d04ee2d6d415b85acef8100000000830492506020015b662386f26fc10000831061155557662386f26fc10000830492506010015b6305f5e100831061156d576305f5e100830492506008015b612710831061158157612710830492506004015b60648310611593576064830492506002015b600a83106104ac5760010192915050565b60006001600160e01b0319821663780e9d6360e01b14806104ac57506104ac82611aee565b60018111156116385760405162461bcd60e51b815260206004820152603560248201527f455243373231456e756d657261626c653a20636f6e7365637574697665207472604482015274185b9cd9995c9cc81b9bdd081cdd5c1c1bdc9d1959605a1b60648201526084016105e0565b816001600160a01b0385166116945761168f81600a80546000838152600b60205260408120829055600182018355919091527fc65a7bb8d6351c1cf70c95a316cc6a92839c986682d98bc35f958f4883f9d2a80155565b6116b7565b836001600160a01b0316856001600160a01b0316146116b7576116b78582611b2e565b6001600160a01b0384166116d3576116ce81611bcb565b6116f6565b846001600160a01b0316846001600160a01b0316146116f6576116f68482611c7a565b5050505050565b60606104ac6001600160a01b03831660145b6060600061171e836002612204565b611729906002612484565b67ffffffffffffffff81111561174157611741611f38565b6040519080825280601f01601f19166020018201604052801561176b576020820181803683370190505b509050600360fc1b8160008151811061178657611786612245565b60200101906001600160f81b031916908160001a905350600f60fb1b816001815181106117b5576117b5612245565b60200101906001600160f81b031916908160001a90535060006117d9846002612204565b6117e4906001612484565b90505b600181111561185c576f181899199a1a9b1b9c1cb0b131b232b360811b85600f166010811061181857611818612245565b1a60f81b82828151811061182e5761182e612245565b60200101906001600160f81b031916908160001a90535060049490941c936118558161249c565b90506117e7565b5083156118ab5760405162461bcd60e51b815260206004820181905260248201527f537472696e67733a20686578206c656e67746820696e73756666696369656e7460448201526064016105e0565b9392505050565b60006118bd82610a70565b90506118cd81600084600161131c565b6118d682610a70565b600083815260066020908152604080832080546001600160a01b03199081169091556001600160a01b0385168085526005845282852080546000190190558785526004909352818420805490911690555192935084927fddf252ad1be2c89b69c2b068fc378daa952ba7f163c4a11628f55a4df523b3ef908390a45050565b6001600160a01b0382166119ab5760405162461bcd60e51b815260206004820181905260248201527f4552433732313a206d696e7420746f20746865207a65726f206164647265737360448201526064016105e0565b6000818152600460205260409020546001600160a01b031615611a105760405162461bcd60e51b815260206004820152601c60248201527f4552433732313a20746f6b656e20616c7265616479206d696e7465640000000060448201526064016105e0565b611a1e60008383600161131c565b6000818152600460205260409020546001600160a01b031615611a835760405162461bcd60e51b815260206004820152601c60248201527f4552433732313a20746f6b656e20616c7265616479206d696e7465640000000060448201526064016105e0565b6001600160a01b038216600081815260056020908152604080832080546001019055848352600490915280822080546001600160a01b0319168417905551839291907fddf252ad1be2c89b69c2b068fc378daa952ba7f163c4a11628f55a4df523b3ef908290a45050565b60006001600160e01b031982166380ac58cd60e01b1480611b1f57506001600160e01b03198216635b5e139f60e01b145b806104ac57506104ac82611cbe565b60006001611b3b84610b5e565b611b4591906124b3565b600083815260096020526040902054909150808214611b98576001600160a01b03841660009081526008602090815260408083208584528252808320548484528184208190558352600990915290208190555b5060009182526009602090815260408084208490556001600160a01b039094168352600881528383209183525290812055565b600a54600090611bdd906001906124b3565b6000838152600b6020526040812054600a8054939450909284908110611c0557611c05612245565b9060005260206000200154905080600a8381548110611c2657611c26612245565b6000918252602080832090910192909255828152600b9091526040808220849055858252812055600a805480611c5e57611c5e6124ca565b6001900381819060005260206000200160009055905550505050565b6000611c8583610b5e565b6001600160a01b039093166000908152600860209081526040808320868452825280832085905593825260099052919091209190915550565b60006001600160e01b0319821663152a902d60e11b14806104ac57506301ffc9a760e01b6001600160e01b03198316146104ac565b828054611cff90612166565b90600052602060002090601f016020900481019282611d215760008555611d67565b82601f10611d3a57805160ff1916838001178555611d67565b82800160010185558215611d67579182015b82811115611d67578251825591602001919060010190611d4c565b50611d73929150611d77565b5090565b5b80821115611d735760008155600101611d78565b6001600160e01b0319811681146108e657600080fd5b600060208284031215611db457600080fd5b81356118ab81611d8c565b60005b83811015611dda578181015183820152602001611dc2565b83811115610cfe5750506000910152565b60008151808452611e03816020860160208601611dbf565b601f01601f19169290920160200192915050565b6020815260006118ab6020830184611deb565b600060208284031215611e3c57600080fd5b5035919050565b80356001600160a01b0381168114611e5a57600080fd5b919050565b60008060408385031215611e7257600080fd5b611e7b83611e43565b946020939093013593505050565b600080600060608486031215611e9e57600080fd5b611ea784611e43565b9250611eb560208501611e43565b9150604084013590509250925092565b60008060408385031215611ed857600080fd5b50508035926020909101359150565b60008060408385031215611efa57600080fd5b82359150611f0a60208401611e43565b90509250929050565b602081528151602082015260006020830151604080840152610ec56060840182611deb565b634e487b7160e01b600052604160045260246000fd5b600067ffffffffffffffff80841115611f6957611f69611f38565b604051601f8501601f19908116603f01168101908282118183101715611f9157611f91611f38565b81604052809350858152868686011115611faa57600080fd5b858560208301376000602087830101525050509392505050565b600082601f830112611fd557600080fd5b6118ab83833560208501611f4e565b600060208284031215611ff657600080fd5b813567ffffffffffffffff81111561200d57600080fd5b610ec584828501611fc4565b60006020828403121561202b57600080fd5b6118ab82611e43565b6000806040838503121561204757600080fd5b61205083611e43565b91506020830135801515811461206557600080fd5b809150509250929050565b60008060006060848603121561208557600080fd5b8335925060208401359150604084013567ffffffffffffffff8111156120aa57600080fd5b6120b686828701611fc4565b9150509250925092565b600080600080608085870312156120d657600080fd5b6120df85611e43565b93506120ed60208601611e43565b925060408501359150606085013567ffffffffffffffff81111561211057600080fd5b8501601f8101871361212157600080fd5b61213087823560208401611f4e565b91505092959194509250565b6000806040838503121561214f57600080fd5b61215883611e43565b9150611f0a60208401611e43565b600181811c9082168061217a57607f821691505b6020821081141561219b57634e487b7160e01b600052602260045260246000fd5b50919050565b6020808252602d908201527f4552433732313a2063616c6c6572206973206e6f7420746f6b656e206f776e6560408201526c1c881bdc88185c1c1c9bdd9959609a1b606082015260800190565b634e487b7160e01b600052601160045260246000fd5b600081600019048311821515161561221e5761221e6121ee565b500290565b60008261224057634e487b7160e01b600052601260045260246000fd5b500490565b634e487b7160e01b600052603260045260246000fd5b6000815161226d818560208601611dbf565b9290920192915050565b600080845481600182811c91508083168061229357607f831692505b60208084108214156122b357634e487b7160e01b86526022600452602486fd5b8180156122c757600181146122d857612305565b60ff19861689528489019650612305565b60008b81526020902060005b868110156122fd5781548b8201529085019083016122e4565b505084890196505b505050505050612315818561225b565b95945050505050565b60208082526025908201527f4552433732313a207472616e736665722066726f6d20696e636f72726563742060408201526437bbb732b960d91b606082015260800190565b60208082526032908201527f4552433732313a207472616e7366657220746f206e6f6e20455243373231526560408201527131b2b4bb32b91034b6b83632b6b2b73a32b960711b606082015260800190565b7f416363657373436f6e74726f6c3a206163636f756e74200000000000000000008152600083516123ed816017850160208801611dbf565b7001034b99036b4b9b9b4b733903937b6329607d1b601791840191820152835161241e816028840160208801611dbf565b01602801949350505050565b6001600160a01b038581168252841660208201526040810183905260806060820181905260009061245d90830184611deb565b9695505050505050565b60006020828403121561247957600080fd5b81516118ab81611d8c565b60008219821115612497576124976121ee565b500190565b6000816124ab576124ab6121ee565b506000190190565b6000828210156124c5576124c56121ee565b500390565b634e487b7160e01b600052603160045260246000fdfea26469706673582212209070011db6289787944dfce681be7af200615a2142010e0276f8b9d445181b6064736f6c634300080b003368747470733a2f2f6170692e6172626f72737761702e636f6d2f6d65746164617461",
  "linkReferences": {},
  "deployedLinkReferences": {}
}