{
  "_format": "hh-sol-artifact-1",
  "contractName": "RoburnaTestnetBadge",
  "sourceName": "contracts/RoburnaTestnetBadge.sol",
  "abi": [
    {
      "inputs": [
        {
          "internalType": "address",
          "name": "_tokenAddress",
          "type": "address"
        }
      ],
      "stateMutability": "nonpayable",
      "type": "constructor"
    },
    {
      "anonymous": false,
      "inputs": [
        {
          "indexed": true,
          "internalType": "address",
          "name": "owner",
          "type": "address"
        },
        {
          "indexed": true,
          "internalType": "address",
          "name": "approved",
          "type": "address"
        },
        {
          "indexed": true,
          "internalType": "uint256",
          "name": "tokenId",
          "type": "uint256"
        }
      ],
      "name": "Approval",
      "type": "event"
    },
    {
      "anonymous": false,
      "inputs": [
        {
          "indexed": true,
          "internalType": "address",
          "name": "owner",
          "type": "address"
        },
        {
          "indexed": true,
          "internalType": "address",
          "name": "operator",
          "type": "address"
        },
        {
          "indexed": false,
          "internalType": "bool",
          "name": "approved",
          "type": "bool"
        }
      ],
      "name": "ApprovalForAll",
      "type": "event"
    },
    {
      "anonymous": false,
      "inputs": [
        {
          "indexed": true,
          "internalType": "address",
          "name": "previousOwner",
          "type": "address"
        },
        {
          "indexed": true,
          "internalType": "address",
          "name": "newOwner",
          "type": "address"
        }
      ],
      "name": "OwnershipTransferred",
      "type": "event"
    },
    {
      "anonymous": false,
      "inputs": [
        {
          "indexed": true,
          "internalType": "address",
          "name": "from",
          "type": "address"
        },
        {
          "indexed": true,
          "internalType": "address",
          "name": "to",
          "type": "address"
        },
        {
          "indexed": true,
          "internalType": "uint256",
          "name": "tokenId",
          "type": "uint256"
        }
      ],
      "name": "Transfer",
      "type": "event"
    },
    {
      "inputs": [
        {
          "internalType": "address",
          "name": "to",
          "type": "address"
        },
        {
          "internalType": "uint256",
          "name": "tokenId",
          "type": "uint256"
        }
      ],
      "name": "approve",
      "outputs": [],
      "stateMutability": "nonpayable",
      "type": "function"
    },
    {
      "inputs": [
        {
          "internalType": "address",
          "name": "owner",
          "type": "address"
        }
      ],
      "name": "balanceOf",
      "outputs": [
        {
          "internalType": "uint256",
          "name": "",
          "type": "uint256"
        }
      ],
      "stateMutability": "view",
      "type": "function"
    },
    {
      "inputs": [
        {
          "internalType": "uint256",
          "name": "tokenId",
          "type": "uint256"
        }
      ],
      "name": "getApproved",
      "outputs": [
        {
          "internalType": "address",
          "name": "",
          "type": "address"
        }
      ],
      "stateMutability": "view",
      "type": "function"
    },
    {
      "inputs": [
        {
          "internalType": "address",
          "name": "owner",
          "type": "address"
        },
        {
          "internalType": "address",
          "name": "operator",
          "type": "address"
        }
      ],
      "name": "isApprovedForAll",
      "outputs": [
        {
          "internalType": "bool",
          "name": "",
          "type": "bool"
        }
      ],
      "stateMutability": "view",
      "type": "function"
    },
    {
      "inputs": [],
      "name": "name",
      "outputs": [
        {
          "internalType": "string",
          "name": "",
          "type": "string"
        }
      ],
      "stateMutability": "view",
      "type": "function"
    },
    {
      "inputs": [],
      "name": "owner",
      "outputs": [
        {
          "internalType": "address",
          "name": "",
          "type": "address"
        }
      ],
      "stateMutability": "view",
      "type": "function"
    },
    {
      "inputs": [
        {
          "internalType": "uint256",
          "name": "tokenId",
          "type": "uint256"
        }
      ],
      "name": "ownerOf",
      "outputs": [
        {
          "internalType": "address",
          "name": "",
          "type": "address"
        }
      ],
      "stateMutability": "view",
      "type": "function"
    },
    {
      "inputs": [],
      "name": "rate",
      "outputs": [
        {
          "internalType": "uint256",
          "name": "",
          "type": "uint256"
        }
      ],
      "stateMutability": "view",
      "type": "function"
    },
    {
      "inputs": [],
      "name": "renounceOwnership",
      "outputs": [],
      "stateMutability": "nonpayable",
      "type": "function"
    },
    {
      "inputs": [],
      "name": "safeMint",
      "outputs": [],
      "stateMutability": "nonpayable",
      "type": "function"
    },
    {
      "inputs": [
        {
          "internalType": "address",
          "name": "from",
          "type": "address"
        },
        {
          "internalType": "address",
          "name": "to",
          "type": "address"
        },
        {
          "internalType": "uint256",
          "name": "tokenId",
          "type": "uint256"
        }
      ],
      "name": "safeTransferFrom",
      "outputs": [],
      "stateMutability": "nonpayable",
      "type": "function"
    },
    {
      "inputs": [
        {
          "internalType": "address",
          "name": "from",
          "type": "address"
        },
        {
          "internalType": "address",
          "name": "to",
          "type": "address"
        },
        {
          "internalType": "uint256",
          "name": "tokenId",
          "type": "uint256"
        },
        {
          "internalType": "bytes",
          "name": "data",
          "type": "bytes"
        }
      ],
      "name": "safeTransferFrom",
      "outputs": [],
      "stateMutability": "nonpayable",
      "type": "function"
    },
    {
      "inputs": [
        {
          "internalType": "address",
          "name": "operator",
          "type": "address"
        },
        {
          "internalType": "bool",
          "name": "approved",
          "type": "bool"
        }
      ],
      "name": "setApprovalForAll",
      "outputs": [],
      "stateMutability": "nonpayable",
      "type": "function"
    },
    {
      "inputs": [
        {
          "internalType": "uint256",
          "name": "_rate",
          "type": "uint256"
        }
      ],
      "name": "setRate",
      "outputs": [],
      "stateMutability": "nonpayable",
      "type": "function"
    },
    {
      "inputs": [
        {
          "internalType": "bytes4",
          "name": "interfaceId",
          "type": "bytes4"
        }
      ],
      "name": "supportsInterface",
      "outputs": [
        {
          "internalType": "bool",
          "name": "",
          "type": "bool"
        }
      ],
      "stateMutability": "view",
      "type": "function"
    },
    {
      "inputs": [],
      "name": "symbol",
      "outputs": [
        {
          "internalType": "string",
          "name": "",
          "type": "string"
        }
      ],
      "stateMutability": "view",
      "type": "function"
    },
    {
      "inputs": [],
      "name": "tokenAddress",
      "outputs": [
        {
          "internalType": "contract IERC20",
          "name": "",
          "type": "address"
        }
      ],
      "stateMutability": "view",
      "type": "function"
    },
    {
      "inputs": [
        {
          "internalType": "uint256",
          "name": "tokenId",
          "type": "uint256"
        }
      ],
      "name": "tokenURI",
      "outputs": [
        {
          "internalType": "string",
          "name": "",
          "type": "string"
        }
      ],
      "stateMutability": "view",
      "type": "function"
    },
    {
      "inputs": [
        {
          "internalType": "address",
          "name": "from",
          "type": "address"
        },
        {
          "internalType": "address",
          "name": "to",
          "type": "address"
        },
        {
          "internalType": "uint256",
          "name": "tokenId",
          "type": "uint256"
        }
      ],
      "name": "transferFrom",
      "outputs": [],
      "stateMutability": "nonpayable",
      "type": "function"
    },
    {
      "inputs": [
        {
          "internalType": "address",
          "name": "newOwner",
          "type": "address"
        }
      ],
      "name": "transferOwnership",
      "outputs": [],
      "stateMutability": "nonpayable",
      "type": "function"
    },
    {
      "inputs": [],
      "name": "withdrawToken",
      "outputs": [],
      "stateMutability": "nonpayable",
      "type": "function"
    }
  ],
  "bytecode": "0x6080604052674563918244f400006008553480156200001d57600080fd5b5060405162001982380380620019828339810160408190526200004091620001f7565b604080518082018252601381527f526f6275726e61546573746e6574426164676500000000000000000000000000602080830191825283518085019094526005845264424144474560d81b908401528151919291620000a29160009162000151565b508051620000b890600190602084019062000151565b505050620000d5620000cf620000fb60201b60201c565b620000ff565b600780546001600160a01b0319166001600160a01b039290921691909117905562000266565b3390565b600680546001600160a01b038381166001600160a01b0319831681179093556040519116919082907f8be0079c531659141344cd1fd0a4f28419497f9722a3daafe3b4186f6b6457e090600090a35050565b8280546200015f9062000229565b90600052602060002090601f016020900481019282620001835760008555620001ce565b82601f106200019e57805160ff1916838001178555620001ce565b82800160010185558215620001ce579182015b82811115620001ce578251825591602001919060010190620001b1565b50620001dc929150620001e0565b5090565b5b80821115620001dc5760008155600101620001e1565b6000602082840312156200020a57600080fd5b81516001600160a01b03811681146200022257600080fd5b9392505050565b600181811c908216806200023e57607f821691505b602082108114156200026057634e487b7160e01b600052602260045260246000fd5b50919050565b61170c80620002766000396000f3fe608060405234801561001057600080fd5b50600436106101375760003560e01c806370a08231116100b8578063a22cb4651161007c578063a22cb4651461026b578063b88d4fde1461027e578063c87b56dd14610291578063ca628c78146102a4578063e985e9c5146102ac578063f2fde38b146102e857600080fd5b806370a0823114610224578063715018a6146102375780638da5cb5b1461023f57806395d89b41146102505780639d76ea581461025857600080fd5b80632c4e722e116100ff5780632c4e722e146101cc57806334fcf437146101e357806342842e0e146101f65780636352211e146102095780636871ee401461021c57600080fd5b806301ffc9a71461013c57806306fdde0314610164578063081812fc14610179578063095ea7b3146101a457806323b872dd146101b9575b600080fd5b61014f61014a36600461121b565b6102fb565b60405190151581526020015b60405180910390f35b61016c61034d565b60405161015b9190611290565b61018c6101873660046112a3565b6103df565b6040516001600160a01b03909116815260200161015b565b6101b76101b23660046112d8565b610406565b005b6101b76101c7366004611302565b610521565b6101d560085481565b60405190815260200161015b565b6101b76101f13660046112a3565b610552565b6101b7610204366004611302565b61055f565b61018c6102173660046112a3565b61057a565b6101b76105da565b6101d561023236600461133e565b610682565b6101b7610708565b6006546001600160a01b031661018c565b61016c61071c565b60075461018c906001600160a01b031681565b6101b7610279366004611367565b61072b565b6101b761028c3660046113b4565b61073a565b61016c61029f3660046112a3565b610772565b6101b76107d9565b61014f6102ba366004611490565b6001600160a01b03918216600090815260056020908152604080832093909416825291909152205460ff1690565b6101b76102f636600461133e565b6108c6565b60006001600160e01b031982166380ac58cd60e01b148061032c57506001600160e01b03198216635b5e139f60e01b145b8061034757506301ffc9a760e01b6001600160e01b03198316145b92915050565b60606000805461035c906114c3565b80601f0160208091040260200160405190810160405280929190818152602001828054610388906114c3565b80156103d55780601f106103aa576101008083540402835291602001916103d5565b820191906000526020600020905b8154815290600101906020018083116103b857829003601f168201915b5050505050905090565b60006103ea8261093c565b506000908152600460205260409020546001600160a01b031690565b60006104118261057a565b9050806001600160a01b0316836001600160a01b031614156104845760405162461bcd60e51b815260206004820152602160248201527f4552433732313a20617070726f76616c20746f2063757272656e74206f776e656044820152603960f91b60648201526084015b60405180910390fd5b336001600160a01b03821614806104a057506104a081336102ba565b6105125760405162461bcd60e51b815260206004820152603d60248201527f4552433732313a20617070726f76652063616c6c6572206973206e6f7420746f60448201527f6b656e206f776e6572206f7220617070726f76656420666f7220616c6c000000606482015260840161047b565b61051c838361099b565b505050565b61052b3382610a09565b6105475760405162461bcd60e51b815260040161047b906114fe565b61051c838383610a88565b61055a610bec565b600855565b61051c8383836040518060200160405280600081525061073a565b6000818152600260205260408120546001600160a01b0316806103475760405162461bcd60e51b8152602060048201526018602482015277115490cdcc8c4e881a5b9d985b1a59081d1bdad95b88125160421b604482015260640161047b565b6007546008546040516323b872dd60e01b815233600482015230602482015260448101919091526001600160a01b03909116906323b872dd906064016020604051808303816000875af1158015610635573d6000803e3d6000fd5b505050506040513d601f19601f82011682018060405250810190610659919061154b565b50600061066560095490565b9050610675600980546001019055565b61067f3382610c46565b50565b60006001600160a01b0382166106ec5760405162461bcd60e51b815260206004820152602960248201527f4552433732313a2061646472657373207a65726f206973206e6f7420612076616044820152683634b21037bbb732b960b91b606482015260840161047b565b506001600160a01b031660009081526003602052604090205490565b610710610bec565b61071a6000610c60565b565b60606001805461035c906114c3565b610736338383610cb2565b5050565b6107443383610a09565b6107605760405162461bcd60e51b815260040161047b906114fe565b61076c84848484610d81565b50505050565b606061077d8261093c565b6000610787610db4565b905060008151116107a757604051806020016040528060008152506107d2565b806107b184610dd4565b6040516020016107c2929190611568565b6040516020818303038152906040525b9392505050565b6107e1610bec565b6007546040516370a0823160e01b81523060048201526001600160a01b039091169063a9059cbb90339083906370a0823190602401602060405180830381865afa158015610833573d6000803e3d6000fd5b505050506040513d601f19601f820116820180604052508101906108579190611597565b6040516001600160e01b031960e085901b1681526001600160a01b03909216600483015260248201526044016020604051808303816000875af11580156108a2573d6000803e3d6000fd5b505050506040513d601f19601f8201168201806040525081019061067f919061154b565b6108ce610bec565b6001600160a01b0381166109335760405162461bcd60e51b815260206004820152602660248201527f4f776e61626c653a206e6577206f776e657220697320746865207a65726f206160448201526564647265737360d01b606482015260840161047b565b61067f81610c60565b6000818152600260205260409020546001600160a01b031661067f5760405162461bcd60e51b8152602060048201526018602482015277115490cdcc8c4e881a5b9d985b1a59081d1bdad95b88125160421b604482015260640161047b565b600081815260046020526040902080546001600160a01b0319166001600160a01b03841690811790915581906109d08261057a565b6001600160a01b03167f8c5be1e5ebec7d5bd14f71427d1e84f3dd0314c0f7b2291e5b200ac8c7c3b92560405160405180910390a45050565b600080610a158361057a565b9050806001600160a01b0316846001600160a01b03161480610a5c57506001600160a01b0380821660009081526005602090815260408083209388168352929052205460ff165b80610a805750836001600160a01b0316610a75846103df565b6001600160a01b0316145b949350505050565b826001600160a01b0316610a9b8261057a565b6001600160a01b031614610ac15760405162461bcd60e51b815260040161047b906115b0565b6001600160a01b038216610b235760405162461bcd60e51b8152602060048201526024808201527f4552433732313a207472616e7366657220746f20746865207a65726f206164646044820152637265737360e01b606482015260840161047b565b826001600160a01b0316610b368261057a565b6001600160a01b031614610b5c5760405162461bcd60e51b815260040161047b906115b0565b600081815260046020908152604080832080546001600160a01b03199081169091556001600160a01b0387811680865260038552838620805460001901905590871680865283862080546001019055868652600290945282852080549092168417909155905184937fddf252ad1be2c89b69c2b068fc378daa952ba7f163c4a11628f55a4df523b3ef91a4505050565b6006546001600160a01b0316331461071a5760405162461bcd60e51b815260206004820181905260248201527f4f776e61626c653a2063616c6c6572206973206e6f7420746865206f776e6572604482015260640161047b565b610736828260405180602001604052806000815250610e71565b600680546001600160a01b038381166001600160a01b0319831681179093556040519116919082907f8be0079c531659141344cd1fd0a4f28419497f9722a3daafe3b4186f6b6457e090600090a35050565b816001600160a01b0316836001600160a01b03161415610d145760405162461bcd60e51b815260206004820152601960248201527f4552433732313a20617070726f766520746f2063616c6c657200000000000000604482015260640161047b565b6001600160a01b03838116600081815260056020908152604080832094871680845294825291829020805460ff191686151590811790915591519182527f17307eab39ab6107e8899845ad3d59bd9653f200f220920489ca2b5937696c31910160405180910390a3505050565b610d8c848484610a88565b610d9884848484610ea4565b61076c5760405162461bcd60e51b815260040161047b906115f5565b60606040518060600160405280603581526020016116a260359139905090565b60606000610de183610fa2565b600101905060008167ffffffffffffffff811115610e0157610e0161139e565b6040519080825280601f01601f191660200182016040528015610e2b576020820181803683370190505b5090508181016020015b600019016f181899199a1a9b1b9c1cb0b131b232b360811b600a86061a8153600a8504945084610e6457610e69565b610e35565b509392505050565b610e7b838361107a565b610e886000848484610ea4565b61051c5760405162461bcd60e51b815260040161047b906115f5565b60006001600160a01b0384163b15610f9757604051630a85bd0160e11b81526001600160a01b0385169063150b7a0290610ee8903390899088908890600401611647565b6020604051808303816000875af1925050508015610f23575060408051601f3d908101601f19168201909252610f2091810190611684565b60015b610f7d573d808015610f51576040519150601f19603f3d011682016040523d82523d6000602084013e610f56565b606091505b508051610f755760405162461bcd60e51b815260040161047b906115f5565b805181602001fd5b6001600160e01b031916630a85bd0160e11b149050610a80565b506001949350505050565b60008072184f03e93ff9f4daa797ed6e38ed64bf6a1f0160401b8310610fe15772184f03e93ff9f4daa797ed6e38ed64bf6a1f0160401b830492506040015b6d04ee2d6d415b85acef8100000000831061100d576d04ee2d6d415b85acef8100000000830492506020015b662386f26fc10000831061102b57662386f26fc10000830492506010015b6305f5e1008310611043576305f5e100830492506008015b612710831061105757612710830492506004015b60648310611069576064830492506002015b600a83106103475760010192915050565b6001600160a01b0382166110d05760405162461bcd60e51b815260206004820181905260248201527f4552433732313a206d696e7420746f20746865207a65726f2061646472657373604482015260640161047b565b6000818152600260205260409020546001600160a01b0316156111355760405162461bcd60e51b815260206004820152601c60248201527f4552433732313a20746f6b656e20616c7265616479206d696e74656400000000604482015260640161047b565b6000818152600260205260409020546001600160a01b03161561119a5760405162461bcd60e51b815260206004820152601c60248201527f4552433732313a20746f6b656e20616c7265616479206d696e74656400000000604482015260640161047b565b6001600160a01b038216600081815260036020908152604080832080546001019055848352600290915280822080546001600160a01b0319168417905551839291907fddf252ad1be2c89b69c2b068fc378daa952ba7f163c4a11628f55a4df523b3ef908290a45050565b6001600160e01b03198116811461067f57600080fd5b60006020828403121561122d57600080fd5b81356107d281611205565b60005b8381101561125357818101518382015260200161123b565b8381111561076c5750506000910152565b6000815180845261127c816020860160208601611238565b601f01601f19169290920160200192915050565b6020815260006107d26020830184611264565b6000602082840312156112b557600080fd5b5035919050565b80356001600160a01b03811681146112d357600080fd5b919050565b600080604083850312156112eb57600080fd5b6112f4836112bc565b946020939093013593505050565b60008060006060848603121561131757600080fd5b611320846112bc565b925061132e602085016112bc565b9150604084013590509250925092565b60006020828403121561135057600080fd5b6107d2826112bc565b801515811461067f57600080fd5b6000806040838503121561137a57600080fd5b611383836112bc565b9150602083013561139381611359565b809150509250929050565b634e487b7160e01b600052604160045260246000fd5b600080600080608085870312156113ca57600080fd5b6113d3856112bc565b93506113e1602086016112bc565b925060408501359150606085013567ffffffffffffffff8082111561140557600080fd5b818701915087601f83011261141957600080fd5b81358181111561142b5761142b61139e565b604051601f8201601f19908116603f011681019083821181831017156114535761145361139e565b816040528281528a602084870101111561146c57600080fd5b82602086016020830137600060208483010152809550505050505092959194509250565b600080604083850312156114a357600080fd5b6114ac836112bc565b91506114ba602084016112bc565b90509250929050565b600181811c908216806114d757607f821691505b602082108114156114f857634e487b7160e01b600052602260045260246000fd5b50919050565b6020808252602d908201527f4552433732313a2063616c6c6572206973206e6f7420746f6b656e206f776e6560408201526c1c881bdc88185c1c1c9bdd9959609a1b606082015260800190565b60006020828403121561155d57600080fd5b81516107d281611359565b6000835161157a818460208801611238565b83519083019061158e818360208801611238565b01949350505050565b6000602082840312156115a957600080fd5b5051919050565b60208082526025908201527f4552433732313a207472616e736665722066726f6d20696e636f72726563742060408201526437bbb732b960d91b606082015260800190565b60208082526032908201527f4552433732313a207472616e7366657220746f206e6f6e20455243373231526560408201527131b2b4bb32b91034b6b83632b6b2b73a32b960711b606082015260800190565b6001600160a01b038581168252841660208201526040810183905260806060820181905260009061167a90830184611264565b9695505050505050565b60006020828403121561169657600080fd5b81516107d28161120556fe68747470733a2f2f6172626f72626f7461646d696e2e6172626f72737761702e6f72672f6d657461646174612f746573746e65742fa2646970667358221220d948fa35ec39586d8bfa6c2ebb28259ea747f16b47f65ef5e6f7a6a5b0303b8d64736f6c634300080b0033",
  "linkReferences": {},
  "deployedLinkReferences": {}
}