{
  "_format": "hh-sol-artifact-1",
  "contractName": "OatIssuer",
  "sourceName": "contracts/OatIssuer.sol",
  "abi": [
    {
      "inputs": [
        {
          "internalType": "address",
          "name": "minter",
          "type": "address"
        },
        {
          "internalType": "address",
          "name": "_arborswapOat",
          "type": "address"
        }
      ],
      "stateMutability": "nonpayable",
      "type": "constructor"
    },
    {
      "anonymous": false,
      "inputs": [
        {
          "indexed": false,
          "internalType": "uint256",
          "name": "tokenId",
          "type": "uint256"
        },
        {
          "indexed": false,
          "internalType": "address",
          "name": "owner",
          "type": "address"
        },
        {
          "indexed": false,
          "internalType": "uint256",
          "name": "campaignId",
          "type": "uint256"
        }
      ],
      "name": "ClaimOat",
      "type": "event"
    },
    {
      "anonymous": false,
      "inputs": [
        {
          "indexed": true,
          "internalType": "bytes32",
          "name": "role",
          "type": "bytes32"
        },
        {
          "indexed": true,
          "internalType": "bytes32",
          "name": "previousAdminRole",
          "type": "bytes32"
        },
        {
          "indexed": true,
          "internalType": "bytes32",
          "name": "newAdminRole",
          "type": "bytes32"
        }
      ],
      "name": "RoleAdminChanged",
      "type": "event"
    },
    {
      "anonymous": false,
      "inputs": [
        {
          "indexed": true,
          "internalType": "bytes32",
          "name": "role",
          "type": "bytes32"
        },
        {
          "indexed": true,
          "internalType": "address",
          "name": "account",
          "type": "address"
        },
        {
          "indexed": true,
          "internalType": "address",
          "name": "sender",
          "type": "address"
        }
      ],
      "name": "RoleGranted",
      "type": "event"
    },
    {
      "anonymous": false,
      "inputs": [
        {
          "indexed": true,
          "internalType": "bytes32",
          "name": "role",
          "type": "bytes32"
        },
        {
          "indexed": true,
          "internalType": "address",
          "name": "account",
          "type": "address"
        },
        {
          "indexed": true,
          "internalType": "address",
          "name": "sender",
          "type": "address"
        }
      ],
      "name": "RoleRevoked",
      "type": "event"
    },
    {
      "inputs": [],
      "name": "CREATOR_ADMIN_SERVER",
      "outputs": [
        {
          "internalType": "bytes32",
          "name": "",
          "type": "bytes32"
        }
      ],
      "stateMutability": "view",
      "type": "function"
    },
    {
      "inputs": [],
      "name": "DEFAULT_ADMIN_ROLE",
      "outputs": [
        {
          "internalType": "bytes32",
          "name": "",
          "type": "bytes32"
        }
      ],
      "stateMutability": "view",
      "type": "function"
    },
    {
      "inputs": [
        {
          "internalType": "uint256",
          "name": "_campaignId",
          "type": "uint256"
        },
        {
          "internalType": "string",
          "name": "_campaignName",
          "type": "string"
        }
      ],
      "name": "addCampaign",
      "outputs": [],
      "stateMutability": "nonpayable",
      "type": "function"
    },
    {
      "inputs": [
        {
          "internalType": "uint256",
          "name": "",
          "type": "uint256"
        }
      ],
      "name": "allCampaigns",
      "outputs": [
        {
          "internalType": "uint256",
          "name": "id",
          "type": "uint256"
        },
        {
          "internalType": "string",
          "name": "name",
          "type": "string"
        }
      ],
      "stateMutability": "view",
      "type": "function"
    },
    {
      "inputs": [],
      "name": "arborswapOat",
      "outputs": [
        {
          "internalType": "contract IArborswapOat",
          "name": "",
          "type": "address"
        }
      ],
      "stateMutability": "view",
      "type": "function"
    },
    {
      "inputs": [
        {
          "internalType": "address[]",
          "name": "_users",
          "type": "address[]"
        },
        {
          "internalType": "uint256",
          "name": "_campaignId",
          "type": "uint256"
        }
      ],
      "name": "blockMultipleUsers",
      "outputs": [],
      "stateMutability": "nonpayable",
      "type": "function"
    },
    {
      "inputs": [
        {
          "internalType": "address",
          "name": "_user",
          "type": "address"
        },
        {
          "internalType": "uint256",
          "name": "_campaignId",
          "type": "uint256"
        }
      ],
      "name": "blockUser",
      "outputs": [],
      "stateMutability": "nonpayable",
      "type": "function"
    },
    {
      "inputs": [
        {
          "internalType": "uint256",
          "name": "",
          "type": "uint256"
        }
      ],
      "name": "campaignInfo",
      "outputs": [
        {
          "internalType": "uint256",
          "name": "id",
          "type": "uint256"
        },
        {
          "internalType": "string",
          "name": "name",
          "type": "string"
        }
      ],
      "stateMutability": "view",
      "type": "function"
    },
    {
      "inputs": [
        {
          "internalType": "uint256",
          "name": "_campaignId",
          "type": "uint256"
        }
      ],
      "name": "claimOat",
      "outputs": [],
      "stateMutability": "nonpayable",
      "type": "function"
    },
    {
      "inputs": [],
      "name": "getAllCampaign",
      "outputs": [
        {
          "components": [
            {
              "internalType": "uint256",
              "name": "id",
              "type": "uint256"
            },
            {
              "internalType": "string",
              "name": "name",
              "type": "string"
            }
          ],
          "internalType": "struct OatIssuer.CampaignInfo[]",
          "name": "",
          "type": "tuple[]"
        }
      ],
      "stateMutability": "view",
      "type": "function"
    },
    {
      "inputs": [
        {
          "internalType": "uint256",
          "name": "id",
          "type": "uint256"
        }
      ],
      "name": "getCampaign",
      "outputs": [
        {
          "components": [
            {
              "internalType": "uint256",
              "name": "id",
              "type": "uint256"
            },
            {
              "internalType": "string",
              "name": "name",
              "type": "string"
            }
          ],
          "internalType": "struct OatIssuer.CampaignInfo",
          "name": "",
          "type": "tuple"
        }
      ],
      "stateMutability": "view",
      "type": "function"
    },
    {
      "inputs": [
        {
          "internalType": "uint256",
          "name": "startIndex",
          "type": "uint256"
        },
        {
          "internalType": "uint256",
          "name": "endIndex",
          "type": "uint256"
        }
      ],
      "name": "getPaginateCampaign",
      "outputs": [
        {
          "components": [
            {
              "internalType": "uint256",
              "name": "id",
              "type": "uint256"
            },
            {
              "internalType": "string",
              "name": "name",
              "type": "string"
            }
          ],
          "internalType": "struct OatIssuer.CampaignInfo[]",
          "name": "",
          "type": "tuple[]"
        }
      ],
      "stateMutability": "view",
      "type": "function"
    },
    {
      "inputs": [
        {
          "internalType": "bytes32",
          "name": "role",
          "type": "bytes32"
        }
      ],
      "name": "getRoleAdmin",
      "outputs": [
        {
          "internalType": "bytes32",
          "name": "",
          "type": "bytes32"
        }
      ],
      "stateMutability": "view",
      "type": "function"
    },
    {
      "inputs": [],
      "name": "getTotalCampaign",
      "outputs": [
        {
          "internalType": "uint256",
          "name": "",
          "type": "uint256"
        }
      ],
      "stateMutability": "view",
      "type": "function"
    },
    {
      "inputs": [
        {
          "internalType": "bytes32",
          "name": "role",
          "type": "bytes32"
        },
        {
          "internalType": "address",
          "name": "account",
          "type": "address"
        }
      ],
      "name": "grantRole",
      "outputs": [],
      "stateMutability": "nonpayable",
      "type": "function"
    },
    {
      "inputs": [
        {
          "internalType": "bytes32",
          "name": "role",
          "type": "bytes32"
        },
        {
          "internalType": "address",
          "name": "account",
          "type": "address"
        }
      ],
      "name": "hasRole",
      "outputs": [
        {
          "internalType": "bool",
          "name": "",
          "type": "bool"
        }
      ],
      "stateMutability": "view",
      "type": "function"
    },
    {
      "inputs": [
        {
          "internalType": "address",
          "name": "_user",
          "type": "address"
        },
        {
          "internalType": "uint256",
          "name": "_campaignId",
          "type": "uint256"
        }
      ],
      "name": "isAlreadyClaimed",
      "outputs": [
        {
          "internalType": "bool",
          "name": "",
          "type": "bool"
        }
      ],
      "stateMutability": "view",
      "type": "function"
    },
    {
      "inputs": [
        {
          "internalType": "address",
          "name": "_user",
          "type": "address"
        },
        {
          "internalType": "uint256",
          "name": "_campaignId",
          "type": "uint256"
        }
      ],
      "name": "isWhitelisted",
      "outputs": [
        {
          "internalType": "bool",
          "name": "",
          "type": "bool"
        }
      ],
      "stateMutability": "view",
      "type": "function"
    },
    {
      "inputs": [
        {
          "internalType": "bytes32",
          "name": "role",
          "type": "bytes32"
        },
        {
          "internalType": "address",
          "name": "account",
          "type": "address"
        }
      ],
      "name": "renounceRole",
      "outputs": [],
      "stateMutability": "nonpayable",
      "type": "function"
    },
    {
      "inputs": [
        {
          "internalType": "bytes32",
          "name": "role",
          "type": "bytes32"
        },
        {
          "internalType": "address",
          "name": "account",
          "type": "address"
        }
      ],
      "name": "revokeRole",
      "outputs": [],
      "stateMutability": "nonpayable",
      "type": "function"
    },
    {
      "inputs": [
        {
          "internalType": "string",
          "name": "_baseUri",
          "type": "string"
        }
      ],
      "name": "setBaseURI",
      "outputs": [],
      "stateMutability": "nonpayable",
      "type": "function"
    },
    {
      "inputs": [
        {
          "internalType": "bytes4",
          "name": "interfaceId",
          "type": "bytes4"
        }
      ],
      "name": "supportsInterface",
      "outputs": [
        {
          "internalType": "bool",
          "name": "",
          "type": "bool"
        }
      ],
      "stateMutability": "view",
      "type": "function"
    },
    {
      "inputs": [
        {
          "internalType": "address[]",
          "name": "_users",
          "type": "address[]"
        },
        {
          "internalType": "uint256",
          "name": "_campaignId",
          "type": "uint256"
        }
      ],
      "name": "whitelistMultipleUsers",
      "outputs": [],
      "stateMutability": "nonpayable",
      "type": "function"
    },
    {
      "inputs": [
        {
          "internalType": "address",
          "name": "_user",
          "type": "address"
        },
        {
          "internalType": "uint256",
          "name": "_campaignId",
          "type": "uint256"
        }
      ],
      "name": "whitelistUser",
      "outputs": [],
      "stateMutability": "nonpayable",
      "type": "function"
    }
  ],
  "bytecode": "0x60806040523480156200001157600080fd5b5060405162001e0138038062001e01833981016040819052620000349162000161565b6200004160003362000094565b6200006d7f20c3b784c1251fbb97fe6db3cfa63383dd3aa172d2b3a79bcdb8ea8c7a384afc8362000094565b600180546001600160a01b0319166001600160a01b03929092169190911790555062000199565b620000a08282620000a4565b5050565b6000828152602081815260408083206001600160a01b038516845290915290205460ff16620000a0576000828152602081815260408083206001600160a01b03851684529091529020805460ff19166001179055620001003390565b6001600160a01b0316816001600160a01b0316837f2f8788117e7eff1d82e926ec794901d17c78024a50270940304540a733656f0d60405160405180910390a45050565b80516001600160a01b03811681146200015c57600080fd5b919050565b600080604083850312156200017557600080fd5b620001808362000144565b9150620001906020840162000144565b90509250929050565b611c5880620001a96000396000f3fe608060405234801561001057600080fd5b50600436106101575760003560e01c806368c872e5116100c3578063bb2238ec1161007c578063bb2238ec14610350578063c2dd92c214610363578063d547741f14610376578063e054ffc314610389578063f0af25b21461039c578063f2e8b67d146103af57600080fd5b806368c872e5146102b5578063830639ac146102c857806391d14854146103015780639c9faac814610314578063a217fddf14610327578063a509f4d11461032f57600080fd5b8063339e9c2411610115578063339e9c241461021a57806336568abe1461022f5780634ca079f2146102425780635598f8cc1461025757806355f1a6871461027757806355f804b3146102a257600080fd5b80623cf8f71461015c57806301ffc9a71461017157806317d2997414610199578063248a9ca3146101ab57806328d0955d146101ce5780632f2ff15d14610207575b600080fd5b61016f61016a366004611627565b6103c2565b005b61018461017f3660046116da565b610455565b60405190151581526020015b60405180910390f35b6005545b604051908152602001610190565b61019d6101b9366004611704565b60009081526020819052604090206001015490565b6101846101dc36600461171d565b6001600160a01b03919091166000908152600360209081526040808320938352929052205460ff1690565b61016f610215366004611747565b61048c565b61019d600080516020611c0383398151915281565b61016f61023d366004611747565b6104b6565b61024a610539565b60405161019091906117f2565b61026a610265366004611704565b6106c9565b6040516101909190611854565b60015461028a906001600160a01b031681565b6040516001600160a01b039091168152602001610190565b61016f6102b03660046118d7565b61079f565b61024a6102c336600461190c565b610810565b6101846102d636600461171d565b6001600160a01b03919091166000908152600260209081526040808320938352929052205460ff1690565b61018461030f366004611747565b610a0d565b61016f610322366004611704565b610a36565b61019d600081565b61034261033d366004611704565b610de4565b60405161019092919061192e565b61034261035e366004611704565b610e9c565b61016f610371366004611947565b610ebe565b61016f610384366004611747565b6110e6565b61016f61039736600461171d565b61110b565b61016f6103aa366004611627565b611154565b61016f6103bd36600461171d565b6111e1565b600080516020611c038339815191526103da81611227565b60005b835181101561044f576000600260008684815181106103fe576103fe61198e565b6020908102919091018101516001600160a01b0316825281810192909252604090810160009081208782529092529020805460ff191691151591909117905580610447816119ba565b9150506103dd565b50505050565b60006001600160e01b03198216637965db0b60e01b148061048657506301ffc9a760e01b6001600160e01b03198316145b92915050565b6000828152602081905260409020600101546104a781611227565b6104b18383611234565b505050565b6001600160a01b038116331461052b5760405162461bcd60e51b815260206004820152602f60248201527f416363657373436f6e74726f6c3a2063616e206f6e6c792072656e6f756e636560448201526e103937b632b9903337b91039b2b63360891b60648201526084015b60405180910390fd5b61053582826112b8565b5050565b60055460609060008061054c81846119d5565b67ffffffffffffffff811115610564576105646115c4565b6040519080825280602002602001820160405280156105aa57816020015b6040805180820190915260008152606060208201528152602001906001900390816105825790505b5090506000825b848110156106bf57600581815481106105cc576105cc61198e565b9060005260206000209060020201604051806040016040529081600082015481526020016001820180546105ff906119ec565b80601f016020809104026020016040519081016040528092919081815260200182805461062b906119ec565b80156106785780601f1061064d57610100808354040283529160200191610678565b820191906000526020600020905b81548152906001019060200180831161065b57829003601f168201915b5050505050815250508383815181106106935761069361198e565b602002602001018190525081806106a9906119ba565b92505080806106b7906119ba565b9150506105b1565b5090949350505050565b6040805180820190915260008152606060208201526006600083815260200190815260200160002060405180604001604052908160008201548152602001600182018054610716906119ec565b80601f0160208091040260200160405190810160405280929190818152602001828054610742906119ec565b801561078f5780601f106107645761010080835404028352916020019161078f565b820191906000526020600020905b81548152906001019060200180831161077257829003601f168201915b5050505050815250509050919050565b60006107aa81611227565b6001546040516355f804b360e01b81526001600160a01b03909116906355f804b3906107da908590600401611a27565b600060405180830381600087803b1580156107f457600080fd5b505af1158015610808573d6000803e3d6000fd5b505050505050565b606082821161084d5760405162461bcd60e51b815260206004820152600960248201526810905117d25394155560ba1b6044820152606401610522565b60055482111561088e5760405162461bcd60e51b815260206004820152600c60248201526b4f55545f4f465f52414e474560a01b6044820152606401610522565b600061089a84846119d5565b67ffffffffffffffff8111156108b2576108b26115c4565b6040519080825280602002602001820160405280156108f857816020015b6040805180820190915260008152606060208201528152602001906001900390816108d05790505b5090506000845b848110156106bf576005818154811061091a5761091a61198e565b90600052602060002090600202016040518060400160405290816000820154815260200160018201805461094d906119ec565b80601f0160208091040260200160405190810160405280929190818152602001828054610979906119ec565b80156109c65780601f1061099b576101008083540402835291602001916109c6565b820191906000526020600020905b8154815290600101906020018083116109a957829003601f168201915b5050505050815250508383815181106109e1576109e161198e565b602002602001018190525081806109f7906119ba565b9250508080610a05906119ba565b9150506108ff565b6000918252602082815260408084206001600160a01b0393909316845291905290205460ff1690565b60008111610a565760405162461bcd60e51b815260040161052290611a3a565b60006006600083815260200190815260200160002060405180604001604052908160008201548152602001600182018054610a90906119ec565b80601f0160208091040260200160405190810160405280929190818152602001828054610abc906119ec565b8015610b095780601f10610ade57610100808354040283529160200191610b09565b820191906000526020600020905b815481529060010190602001808311610aec57829003601f168201915b50505091909252505060408051602080820190925260009052808301518051910120919250507fc5d2460186f7233c927e7db2dcc703c0e500b653ca82273b7bfad8045d85a4701415610b935760405162461bcd60e51b815260206004820152601260248201527118d85b5c185a59db881b9bdd08199bdd5b9960721b6044820152606401610522565b33600090815260026020908152604080832085845290915290205460ff16610bef5760405162461bcd60e51b815260206004820152600f60248201526e1b9bdd081dda1a5d195b1a5cdd1959608a1b6044820152606401610522565b33600090815260036020908152604080832085845290915290205460ff1615610c4c5760405162461bcd60e51b815260206004820152600f60248201526e185b1c9958591e4818db185a5b5959608a1b6044820152606401610522565b610c5a600480546001019055565b6000610c6560045490565b600154604051632851206560e21b8152336004820152602481018390529192506001600160a01b03169063a144819490604401600060405180830381600087803b158015610cb257600080fd5b505af1158015610cc6573d6000803e3d6000fd5b5050336000908152600360209081526040808320888452825291829020805460ff191660019081179091555490860151915163a577747560e01b81526001600160a01b0391909116935063a57774759250610d28918591889190600401611a7b565b600060405180830381600087803b158015610d4257600080fd5b505af1158015610d56573d6000803e3d6000fd5b5050604080518082018252868152602086810151818301908152600087815260068352939093208251815592518051929550929350610d9c92600185019291019061152b565b5050604080518381523360208201529081018590527fda7cd5b842cd2867abe1b831f6f64c641101ea618fc54ac75c77a60412daab32915060600160405180910390a1505050565b60058181548110610df457600080fd5b60009182526020909120600290910201805460018201805491935090610e19906119ec565b80601f0160208091040260200160405190810160405280929190818152602001828054610e45906119ec565b8015610e925780601f10610e6757610100808354040283529160200191610e92565b820191906000526020600020905b815481529060010190602001808311610e7557829003601f168201915b5050505050905082565b60066020526000908152604090208054600182018054919291610e19906119ec565b600080516020611c03833981519152610ed681611227565b60008311610ef65760405162461bcd60e51b815260040161052290611a3a565b604080516020808201909252600090528251908301207fc5d2460186f7233c927e7db2dcc703c0e500b653ca82273b7bfad8045d85a4701415610f7b5760405162461bcd60e51b815260206004820152601d60248201527f63616d706169676e206e616d652063616e6e6f7420626520656d7074790000006044820152606401610522565b60408051602080820183526000918290528582526006905281902090517fc5d2460186f7233c927e7db2dcc703c0e500b653ca82273b7bfad8045d85a47091610fc991600190910190611aa3565b60405180910390201461101e5760405162461bcd60e51b815260206004820152601760248201527f63616d706169676e20616c7265616479206578697374730000000000000000006044820152606401610522565b60408051808201909152838152602080820184815260058054600181018255600091909152835160029091027f036b6384b5eca791c62761152d0c79bb0604c104a5fb6f4eb0703f3154bb3db081019182559151805191936110a5937f036b6384b5eca791c62761152d0c79bb0604c104a5fb6f4eb0703f3154bb3db1019291019061152b565b50506040805180820182528581526020808201868152600088815260068352939093208251815592518051929450610808926001850192919091019061152b565b60008281526020819052604090206001015461110181611227565b6104b183836112b8565b600080516020611c0383398151915261112381611227565b506001600160a01b03909116600090815260026020908152604080832093835292905220805460ff19166001179055565b600080516020611c0383398151915261116c81611227565b60005b835181101561044f576001600260008684815181106111905761119061198e565b6020908102919091018101516001600160a01b0316825281810192909252604090810160009081208782529092529020805460ff1916911515919091179055806111d9816119ba565b91505061116f565b600080516020611c038339815191526111f981611227565b506001600160a01b03909116600090815260026020908152604080832093835292905220805460ff19169055565b611231813361131d565b50565b61123e8282610a0d565b610535576000828152602081815260408083206001600160a01b03851684529091529020805460ff191660011790556112743390565b6001600160a01b0316816001600160a01b0316837f2f8788117e7eff1d82e926ec794901d17c78024a50270940304540a733656f0d60405160405180910390a45050565b6112c28282610a0d565b15610535576000828152602081815260408083206001600160a01b0385168085529252808320805460ff1916905551339285917ff6391f5c32d9c69d2a47ea670b442974b53935d1edc7fd64eb21e047a839171b9190a45050565b6113278282610a0d565b6105355761133481611376565b61133f836020611388565b604051602001611350929190611b3f565b60408051601f198184030181529082905262461bcd60e51b825261052291600401611a27565b60606104866001600160a01b03831660145b60606000611397836002611bb4565b6113a2906002611bd3565b67ffffffffffffffff8111156113ba576113ba6115c4565b6040519080825280601f01601f1916602001820160405280156113e4576020820181803683370190505b509050600360fc1b816000815181106113ff576113ff61198e565b60200101906001600160f81b031916908160001a905350600f60fb1b8160018151811061142e5761142e61198e565b60200101906001600160f81b031916908160001a9053506000611452846002611bb4565b61145d906001611bd3565b90505b60018111156114d5576f181899199a1a9b1b9c1cb0b131b232b360811b85600f16601081106114915761149161198e565b1a60f81b8282815181106114a7576114a761198e565b60200101906001600160f81b031916908160001a90535060049490941c936114ce81611beb565b9050611460565b5083156115245760405162461bcd60e51b815260206004820181905260248201527f537472696e67733a20686578206c656e67746820696e73756666696369656e746044820152606401610522565b9392505050565b828054611537906119ec565b90600052602060002090601f016020900481019282611559576000855561159f565b82601f1061157257805160ff191683800117855561159f565b8280016001018555821561159f579182015b8281111561159f578251825591602001919060010190611584565b506115ab9291506115af565b5090565b5b808211156115ab57600081556001016115b0565b634e487b7160e01b600052604160045260246000fd5b604051601f8201601f1916810167ffffffffffffffff81118282101715611603576116036115c4565b604052919050565b80356001600160a01b038116811461162257600080fd5b919050565b6000806040838503121561163a57600080fd5b823567ffffffffffffffff8082111561165257600080fd5b818501915085601f83011261166657600080fd5b813560208282111561167a5761167a6115c4565b8160051b925061168b8184016115da565b82815292840181019281810190898511156116a557600080fd5b948201945b848610156116ca576116bb8661160b565b825294820194908201906116aa565b9997909101359750505050505050565b6000602082840312156116ec57600080fd5b81356001600160e01b03198116811461152457600080fd5b60006020828403121561171657600080fd5b5035919050565b6000806040838503121561173057600080fd5b6117398361160b565b946020939093013593505050565b6000806040838503121561175a57600080fd5b8235915061176a6020840161160b565b90509250929050565b60005b8381101561178e578181015183820152602001611776565b8381111561044f5750506000910152565b600081518084526117b7816020860160208601611773565b601f01601f19169290920160200192915050565b8051825260006020820151604060208501526117ea604085018261179f565b949350505050565b6000602080830181845280855180835260408601915060408160051b870101925083870160005b8281101561184757603f198886030184526118358583516117cb565b94509285019290850190600101611819565b5092979650505050505050565b60208152600061152460208301846117cb565b600082601f83011261187857600080fd5b813567ffffffffffffffff811115611892576118926115c4565b6118a5601f8201601f19166020016115da565b8181528460208386010111156118ba57600080fd5b816020850160208301376000918101602001919091529392505050565b6000602082840312156118e957600080fd5b813567ffffffffffffffff81111561190057600080fd5b6117ea84828501611867565b6000806040838503121561191f57600080fd5b50508035926020909101359150565b8281526040602082015260006117ea604083018461179f565b6000806040838503121561195a57600080fd5b82359150602083013567ffffffffffffffff81111561197857600080fd5b61198485828601611867565b9150509250929050565b634e487b7160e01b600052603260045260246000fd5b634e487b7160e01b600052601160045260246000fd5b60006000198214156119ce576119ce6119a4565b5060010190565b6000828210156119e7576119e76119a4565b500390565b600181811c90821680611a0057607f821691505b60208210811415611a2157634e487b7160e01b600052602260045260246000fd5b50919050565b602081526000611524602083018461179f565b60208082526021908201527f63616d706169676e4964206d7573742062652067726561746572207468616e206040820152600360fc1b606082015260800190565b838152826020820152606060408201526000611a9a606083018461179f565b95945050505050565b600080835481600182811c915080831680611abf57607f831692505b6020808410821415611adf57634e487b7160e01b86526022600452602486fd5b818015611af35760018114611b0457611b31565b60ff19861689528489019650611b31565b60008a81526020902060005b86811015611b295781548b820152908501908301611b10565b505084890196505b509498975050505050505050565b7f416363657373436f6e74726f6c3a206163636f756e7420000000000000000000815260008351611b77816017850160208801611773565b7001034b99036b4b9b9b4b733903937b6329607d1b6017918401918201528351611ba8816028840160208801611773565b01602801949350505050565b6000816000190483118215151615611bce57611bce6119a4565b500290565b60008219821115611be657611be66119a4565b500190565b600081611bfa57611bfa6119a4565b50600019019056fe20c3b784c1251fbb97fe6db3cfa63383dd3aa172d2b3a79bcdb8ea8c7a384afca2646970667358221220026512992a8b57caae7faeb4c4bd06d05dd51a6555f1f3d362fdbadb943ba37864736f6c634300080b0033",
  "linkReferences": {},
  "deployedLinkReferences": {}
}